{
  "contractName": "RealEstate",
  "abi": [
    {
      "constant": true,
      "inputs": [],
      "name": "owner",
      "outputs": [
        {
          "name": "",
          "type": "address"
        }
      ],
      "payable": false,
      "stateMutability": "view",
      "type": "function"
    },
    {
      "constant": true,
      "inputs": [
        {
          "name": "",
          "type": "uint256"
        }
      ],
      "name": "buyerInfo",
      "outputs": [
        {
          "name": "buyerAddress",
          "type": "address"
        },
        {
          "name": "name",
          "type": "bytes32"
        },
        {
          "name": "age",
          "type": "uint256"
        }
      ],
      "payable": false,
      "stateMutability": "view",
      "type": "function"
    },
    {
      "constant": true,
      "inputs": [
        {
          "name": "",
          "type": "uint256"
        }
      ],
      "name": "buyers",
      "outputs": [
        {
          "name": "",
          "type": "address"
        }
      ],
      "payable": false,
      "stateMutability": "view",
      "type": "function"
    },
    {
      "inputs": [],
      "payable": false,
      "stateMutability": "nonpayable",
      "type": "constructor"
    },
    {
      "anonymous": false,
      "inputs": [
        {
          "indexed": false,
          "name": "_buyer",
          "type": "address"
        },
        {
          "indexed": false,
          "name": "_id",
          "type": "uint256"
        }
      ],
      "name": "LogBuyRealEstate",
      "type": "event"
    },
    {
      "constant": false,
      "inputs": [
        {
          "name": "_id",
          "type": "uint256"
        },
        {
          "name": "_name",
          "type": "bytes32"
        },
        {
          "name": "_age",
          "type": "uint256"
        }
      ],
      "name": "buyRealEstate",
      "outputs": [],
      "payable": true,
      "stateMutability": "payable",
      "type": "function"
    },
    {
      "constant": true,
      "inputs": [
        {
          "name": "_id",
          "type": "uint256"
        }
      ],
      "name": "getBuyerInfo",
      "outputs": [
        {
          "name": "",
          "type": "address"
        },
        {
          "name": "",
          "type": "bytes32"
        },
        {
          "name": "",
          "type": "uint256"
        }
      ],
      "payable": false,
      "stateMutability": "view",
      "type": "function"
    },
    {
      "constant": true,
      "inputs": [],
      "name": "getAllBuyers",
      "outputs": [
        {
          "name": "",
          "type": "address[10]"
        }
      ],
      "payable": false,
      "stateMutability": "view",
      "type": "function"
    }
  ],
  "bytecode": "0x608060405234801561001057600080fd5b5033600160006101000a81548173ffffffffffffffffffffffffffffffffffffffff021916908373ffffffffffffffffffffffffffffffffffffffff160217905550610730806100616000396000f300608060405260043610610078576000357c0100000000000000000000000000000000000000000000000000000000900463ffffffff16806332d0c15f1461007d5780635aee8703146100b557806386cba22b146101385780638da5cb5b1461018b578063e377e966146101e2578063f2aa821814610265575b600080fd5b6100b3600480360381019080803590602001909291908035600019169060200190929190803590602001909291905050506102d2565b005b3480156100c157600080fd5b506100e0600480360381019080803590602001909291905050506104c3565b604051808473ffffffffffffffffffffffffffffffffffffffff1673ffffffffffffffffffffffffffffffffffffffff1681526020018360001916600019168152602001828152602001935050505060405180910390f35b34801561014457600080fd5b5061014d61057f565b6040518082600a60200280838360005b8381101561017857808201518184015260208101905061015d565b5050505090500191505060405180910390f35b34801561019757600080fd5b506101a0610600565b604051808273ffffffffffffffffffffffffffffffffffffffff1673ffffffffffffffffffffffffffffffffffffffff16815260200191505060405180910390f35b3480156101ee57600080fd5b5061020d60048036038101908080359060200190929190505050610626565b604051808473ffffffffffffffffffffffffffffffffffffffff1673ffffffffffffffffffffffffffffffffffffffff1681526020018360001916600019168152602001828152602001935050505060405180910390f35b34801561027157600080fd5b5061029060048036038101908080359060200190929190505050610670565b604051808273ffffffffffffffffffffffffffffffffffffffff1673ffffffffffffffffffffffffffffffffffffffff16815260200191505060405180910390f35b600083101580156102e4575060098311155b15156102ef57600080fd5b33600284600a811015156102ff57fe5b0160006101000a81548173ffffffffffffffffffffffffffffffffffffffff021916908373ffffffffffffffffffffffffffffffffffffffff1602179055506060604051908101604052803373ffffffffffffffffffffffffffffffffffffffff168152602001836000191681526020018281525060008085815260200190815260200160002060008201518160000160006101000a81548173ffffffffffffffffffffffffffffffffffffffff021916908373ffffffffffffffffffffffffffffffffffffffff1602179055506020820151816001019060001916905560408201518160020155905050600160009054906101000a900473ffffffffffffffffffffffffffffffffffffffff1673ffffffffffffffffffffffffffffffffffffffff166108fc349081150290604051600060405180830381858888f19350505050158015610452573d6000803e3d6000fd5b507f0868a2b77ef5243ab424f87952a349bc823a92fd01d9b45d2fec78b8eafb586b3384604051808373ffffffffffffffffffffffffffffffffffffffff1673ffffffffffffffffffffffffffffffffffffffff1681526020018281526020019250505060405180910390a1505050565b60008060006104d06106a5565b600080868152602001908152602001600020606060405190810160405290816000820160009054906101000a900473ffffffffffffffffffffffffffffffffffffffff1673ffffffffffffffffffffffffffffffffffffffff1673ffffffffffffffffffffffffffffffffffffffff1681526020016001820154600019166000191681526020016002820154815250509050806000015181602001518260400151935093509350509193909250565b6105876106e0565b6002600a806020026040519081016040528092919082600a80156105f6576020028201915b8160009054906101000a900473ffffffffffffffffffffffffffffffffffffffff1673ffffffffffffffffffffffffffffffffffffffff16815260200190600101908083116105ac575b5050505050905090565b600160009054906101000a900473ffffffffffffffffffffffffffffffffffffffff1681565b60006020528060005260406000206000915090508060000160009054906101000a900473ffffffffffffffffffffffffffffffffffffffff16908060010154908060020154905083565b600281600a8110151561067f57fe5b016000915054906101000a900473ffffffffffffffffffffffffffffffffffffffff1681565b606060405190810160405280600073ffffffffffffffffffffffffffffffffffffffff16815260200160008019168152602001600081525090565b61014060405190810160405280600a906020820280388339808201915050905050905600a165627a7a723058206c7bbbab5b0f733f4604b86e3eedeec2064841a637a3f9edd3306adab05fcca80029",
  "source": "pragma solidity ^0.4.23;\r\n\r\ncontract RealEstate {\r\n    struct Buyer {\r\n        address buyerAddress;\r\n        bytes32 name;\r\n        uint age;\r\n    }\r\n\r\n    mapping (uint => Buyer) public buyerInfo; // 매입자 정보 보관(id를 키 값으로)\r\n    address public owner;\r\n    address[10] public buyers; //매입자 계정 주소 저장\r\n\r\n    //로그 포맷\r\n    event LogBuyRealEstate( \r\n        address _buyer,\r\n        uint _id\r\n    );\r\n\r\n    // 컨트랙 배포자가 해당 컨트랙의 소유자가 될 수 있게(현재 Accounts[0])\r\n    constructor() public {\r\n        owner = msg.sender;\r\n    }\r\n\r\n    //매물 구입 함수\r\n    function buyRealEstate(uint _id, bytes32 _name, uint _age) public payable {\r\n        require(_id >=0 && _id <=9); //id 유효성 검사\r\n        buyers[_id] = msg.sender; // 현재 이 함수를 사용하고 있는 계정 저장(0부터)\r\n        buyerInfo[_id] = Buyer(msg.sender, _name, _age); // 매입자 정보 저장\r\n\r\n        owner.transfer(msg.value); //owner에게 ETH 전송\r\n        emit LogBuyRealEstate(msg.sender, _id); //이벤트 정보\r\n    }\r\n\r\n    //읽기 전용 함수\r\n    function getBuyerInfo(uint _id) public view returns (address, bytes32, uint) {\r\n        Buyer memory buyer = buyerInfo[_id]; // 매입자 정보 읽기(id로 조회)\r\n        return (buyer.buyerAddress, buyer.name, buyer.age);\r\n    }\r\n\r\n    //모든 매물에 대한 buyer 정보\r\n    function getAllBuyers() public view returns (address[10]) {\r\n        return buyers;\r\n    }\r\n}\r\n",
  "sourcePath": "/Users/gimhyeon-u/Desktop/blockchain/real-estate/contracts/RealEstate.sol",
  "compiler": {
    "name": "solc",
    "version": "0.4.25+commit.59dbf8f1.Emscripten.clang"
  },
  "schemaVersion": "2.0.2",
  "updatedAt": "2022-01-18T10:55:24.697Z"
}